:020000040800F2
:10800000600400209D8100081D8E0008A58D0008D9
:10801000198E0008A9820008F990000800000000ED
:10802000000000000000000000000000518E000869
:10803000AD820008000000004D8E0008858E00080B
:10804000B7810008B7810008B7810008B781000830
:10805000B7810008B7810008B7810008B781000820
:10806000B7810008B7810008B7810008B781000810
:10807000B7810008B7810008B7810008B781000800
:10808000B7810008B7810008B7810008B7810008F0
:10809000B7810008B7810008B7810008B7810008E0
:1080A000B7810008B7810008B7810008B7810008D0
:1080B000B7810008B7810008B7810008B7810008C0
:1080C000B7810008B7810008B7810008B7810008B0
:1080D000B7810008B7810008B7810008B7810008A0
:1080E000B7810008B7810008B7810008B781000890
:1080F000B7810008B7810008B7810008B781000880
:10810000B7810008B7810008B7810008B78100086F
:10811000B7810008B7810008B7810008B78100085F
:10812000B7810008B7810008B7810008B78100084F
:10813000B7810008B7810008B7810008B78100083F
:10814000B7810008B7810008B7810008B78100082F
:10815000B7810008B7810008B7810008B78100081F
:10816000B7810008B7810008B7810008B78100080F
:10817000B7810008B7810008B7810008000000003F
:10818000B7810008B7810008DFF80CD000F07AF85A
:1081900000480047719100086004002006488047AD
:1081A00006480047FEE7FEE7FEE7FEE7FEE7FEE7DC
:1081B000FEE7FEE7FEE7FEE7318F00088981000851
:1081C0002DE9F05F0546002092469B46884606460C
:1081D000814640241BE0284641464746224600F09F
:1081E00041F853465A46C01A914110D311461846D9
:1081F000224600F028F82D1A67EB01084F46224668
:108200000120002100F01FF817EB00094E41201E4D
:10821000A4F10104DFDC484631462A464346BDE866
:10822000F09FD2B201E000F8012B491EFBD270474B
:108230000022F6E710B513460A4604461946FFF732
:10824000F0FF204610BD202A04DB203A00FA02F19C
:10825000002070479140C2F1200320FA03F3194334
:1082600090407047202A04DB203A21FA02F00021D6
:10827000704721FA02F3D040C2F120029140084336
:1082800019467047064C074D06E0E06840F00103D0
:1082900094E8070098471034AC42F6D3FFF778FF14
:1082A0001492000834920008FEE7000070470000B6
:1082B00072B600BFFEE70000B0B5044600F0DEF87D
:1082C000054640F20800C2F200000078611C18BFA9
:1082D000044400BF00F0D2F8401BA042FAD3B0BD66
:1082E0002DE9F04F83B000F13E4202F1FF724FEAF8
:1082F000B22241F600470192C4F2020708224FF071
:10830000010E00254FF0000A4FF00008B84208BFE8
:10831000072200920AE000BF08F101080AF1040AEE
:10832000B8F1100F05F1020500F0A4800C680EFAF8
:1083300008FB14EA0B09EFD04C6804F0030CACF115
:10834000010EBEF1010F11D80322876802FA05F66B
:10835000CA68B743AA403A4382604268C4F3001730
:1083600022EA0B0207FA08F73A434260BCF1030F16
:108370001CD0C26803238E6803FA05F7BA4306FAD5
:1083800005F73A43BCF1020FC2600FD16FF0030250
:1083900002EA580202440AF01C060F23176A03FA85
:1083A00006F40B69A743B3403B43136202680323FF
:1083B0004F68AB409A4307F00303AB401A4317F4EE
:1083C000403F4FF0010E0260A6D0002243F6440366
:1083D0000292C4F202031A6843F6004442F4804257
:1083E0001A601A68C4F2010402F480420292029AEE
:1083F00028F003024FF6084B2244CFF6FF7B52F8D9
:108400000B300AF00C070F26BE4023EA060C019B36
:10841000009E072B38BF1E4606FA07F747EA0C03F3
:1084200042F80B30A2684B6842EA090743F60C4C4D
:10843000DE0258BF22EA0907A760C4F2010CDCF88B
:1084400000209E0242EA090758BF22EA0907CCF839
:10845000007062689E0342EA090758BF22EA0907D2
:1084600067602268DB0342EA090358BF22EA090376
:10847000236051E703B0BDE8F08F000040F25800E0
:10848000C2F200000068704740F2080040F2580154
:10849000C2F20000C2F2000100780A6810440860CD
:1084A0007047000080B543F60040C4F20200016846
:1084B00041F400710160016841F48061016001686C
:1084C00041F480710160032000F05CF80F2000F09F
:1084D00005F800F02BF8002080BD0000B0B540F298
:1084E0000802C2F2000240F204011278C2F2000156
:1084F0004FF47A730968B3FBF2F20446B1FBF2F170
:10850000084600F087FB0F2C4FF001050CD858B936
:108510004FF0FF3021460022002500F023F840F202
:108520000C00C2F2000004602846B0BD82B00020FA
:1085300043F640010190C4F202014A6842F48042CD
:108540004A604A6802F480420192019A00900868E9
:1085500040F080500860086800F08050009000985B
:1085600002B0704770B514460D46064600F0C6FDD1
:108570002946224600F054FC0146304600F0C6FD74
:1085800070BD000080B500F0D3FD80BD2DE9F04145
:10859000002800F08B8043F60808C4F20208044665
:1085A000D8F8F8030D4600F00700884207D288F893
:1085B000F853D8F8F80300F00700A84276D12068F5
:1085C000810717D5410705D5D8F8001041F4E051CF
:1085D000C8F80010010705D5D8F8001041F4604133
:1085E000C8F80010D8F80010A26821F0F00111437B
:1085F000C8F80010C0073FD1D8F8F80300F0070012
:10860000A84207D988F8F853D8F8F80300F0070013
:10861000A8424BD12068410707D5D8F80010E2687E
:1086200021F4E0511143C8F80010000708D5D8F82C
:108630000000216920F4604040EAC100C8F8000051
:1086400000F010F9D8F8001049F2FC12C1F3031140
:10865000C0F60002515C40F2040220FA01F140F23F
:108660000C00C2F200000068C2F200021160FFF7C5
:1086700035FF0020BDE8F0816068811E022907D225
:1086800058F8081C89015CBF0120BDE8F08110E0AA
:10869000012807D158F8081C89035CBF0120BDE8F8
:1086A000F08106E058F8081C890702D40120BDE8D3
:1086B000F081D8F8001021F003010843C8F8000049
:1086C000FFF7DCFE064641F2883700BFD8F800000D
:1086D000616800F00C00B0EB810F8DD0FFF7CEFE8B
:1086E000801BB842F2D90320BDE8F081F0B581B01B
:1086F00043F60006C4F20206FFF7C0FE31680446E6
:1087000041F00100306000BF3068800705D4FFF7FA
:10871000B5FE001B0228F7D93EE0306840F080002B
:108720003060FFF7ABFE0546002041F28837B060AD
:10873000B468FFF7A3FE14F00C0F044603D0601BCF
:10874000B842F5D928E0306820F45020306000BFEE
:108750003568FFF793FEA903054603D5281B642857
:10876000F6D919E0306820F0807030603468FFF787
:1087700085FEA101044603D5601B0228F6D90BE053
:10878000306820F0806030603068000107D5FFF766
:1087900075FE001B0228F7D9032001B0F0BD43F29B
:1087A0001000C0F20040706043F20000C2F200000E
:1087B000C6F88400F06840F2040120F4F850F0603C
:1087C000F06842F2004220F40050F060F068C2F21B
:1087D000000140F41F00F060F068C0F2F40240F4C1
:1087E0000010F060706F20F001007067706F40F053
:1087F0008070706740F20C00C2F2000000680A60EE
:10880000FFF76CFE002818BF012001B0F0BD00008A
:1088100040F20400C2F200000068704780B5FFF724
:10882000F7FF43F60801C4F20201096849F20C227D
:10883000C1F38221C0F60002515CC84080BD000037
:1088400080B5FFF7E5FF43F60801C4F202010968AD
:1088500049F20C22C1F34231C0F60002515CC8401B
:1088600080BD000010B543F60404C4F20204606841
:1088700000F00C0142F200400829C0F2F40007D0D9
:10888000042918BF10BD41F20020C0F27A0010BDCB
:10889000216801F03F02216823684902C3F388116F
:1088A00005D4A1FB00010023FFF78AFC06E041F29A
:1088B0000020C0F27A004843B0FBF2F021680222A7
:1088C000C1F3014102EB4101B0FBF1F010BD00002A
:1088D0002DE9F04182B0002800F09F800446007826
:1088E00043F60006C007C4F2020641D0B06800F0AB
:1088F0000C00042805D13068800339D56068B8BB06
:108900008BE0B06800F00C00082802D170684002CB
:10891000F1D46568B5F5803F06D03068B5F5A02F75
:1089200006D140F480203060306840F4803005E0AB
:1089300020F480303060306820F480203060FFF711
:108940009DFD002D054610D03068800310D4FFF740
:1089500095FD401B6428F7D922E100BFFFF78EFD8B
:10896000401B64284FF0030054D830688003F5D4CE
:10897000207880071AD5B06810F00C0F09D0B068C5
:1089800000F00C00082840F08C807068400200F174
:1089900088803068800702D5E06801283DD13068C2
:1089A000216920F0F80040EAC1003060207800071B
:1089B00037D4207840074AD4A56955B3B06800F091
:1089C0000C00082840F0A080012D26D07068E169D5
:1089D00000F480028A4220D1216A00F03F028A42DC
:1089E0001BD147F6C071626A0140B1EB821F14D1FE
:1089F000A16A4FF6FF73C903994300F44032A1F511
:108A000080318A4209D1E16A00F07060B0EB016FF9
:108A100003D1002002B0BDE8F081012002B0BDE822
:108A2000F0816069002840F20000C4F247205AD06B
:108A30000121C0F8801EFFF721FD0546706F8007F9
:108A4000B7D4FFF71BFD401B0228F7D9A8E0306C14
:108A50004FF00008C0000CD4CDF80480306C4FF00B
:108A6000010840F080503064306C00F0805001907C
:108A7000019847F20007C4F200073868C00525D402
:108A8000386840F480703860FFF7F8FC054600BF96
:108A90003868C0051AD4FFF7F1FC401B0228F7D94B
:108AA0007EE0E068002851D00020C4F24720012178
:108AB0000160FFF7E3FC0546306880073FF56FAFC4
:108AC000FFF7DCFC401B0228F6D969E0A568012D00
:108AD00005D0306F052D4DD140F004003067306F68
:108AE00040F001004CE00021C0F8801EFFF7C6FCFA
:108AF000054600BF706F80077FF55BAFFFF7BEFCD8
:108B0000401B0228F6D94BE00027C4F2472700207B
:108B10003866FFF7B3FC022D05460BD130688001A3
:108B200056D5FFF7ABFC401B02284FF00300F5D9E8
:108B300070E700BF306880017FF56BAFFFF79EFCE8
:108B4000401B02284FF00300F4D963E70020C4F271
:108B5000472000210160FFF791FC0546306880073F
:108B60007FF524AFFFF78AFC401B02284FF003007B
:108B7000F4D94FE720F001003067306F20F0040097
:108B80003067FFF77BFC002D054641F2883713D094
:108B9000306F800713D4FFF771FC401BB842F7D940
:108BA000032002B0BDE8F081FFF768FC401BB8422B
:108BB0004FF003003FF62EAF306F8007F4D4B8F1CA
:108BC000000F3FF4F9AE306C20F080503064F3E6D3
:108BD00004F11C052FCD084340EA8210D9034FF65B
:108BE000FF729143A1F5803140EA0560084370604F
:108BF00001203866FFF742FC044600BF3068800160
:108C00003FF507AFFFF73AFC001B02284FF00300C7
:108C1000F4D9FFE680B500F01DF980BD002804BF3F
:108C20000120704710B5044690F8410028B9002093
:108C300084F84000204600F021F8242084F8410008
:108C40002068C16821F40051C160204600F0A2F9FB
:108C50002068016921F490410161416921F02A01F4
:108C60004161C16841F40051C1600020202160646D
:108C700084F8411084F84210606310BD80B586B05E
:108C800000220592CDE9032241F200010068C4F2FE
:108C9000010188420292019201D006B080BD43F6E4
:108CA00030000092C4F20200436943F010034361B4
:108CB000436903F010030093009B0092036843F0A4
:108CC00001030360006800F00100009000984FF479
:108CD000C06001900220CDE9020203200490072029
:108CE000059001F5704001A9FFF7FAFA06B080BDC2
:108CF0002DE9F041044690F8410020281CBF0220D5
:108D0000BDE8F0810E4600294FF0010042D0174621
:108D1000002A08BFBDE8F0814FF0000821201D4661
:108D2000C4F8448084F84100FFF7A8FBA784E784D7
:108D3000A1680746B1F5805F0DD12069002814BFF6
:108D40003046B046064606E016F8010B216848603A
:108D5000E08C0138E084E08C80B1204680213A46E6
:108D60002B4600F085F9B8B9002EEDD138F8020B8A
:108D700021686FF35F2048600026E9E72046402124
:108D80003A462B4600F074F9202184F8411000285F
:108D900018BF0320BDE8F081202084F841000320A3
:108DA000BDE8F081FEE7000082B0002043F630010C
:108DB0000190C4F202010A6842F080020A600A6867
:108DC00002F080020192019A0090086840F00100D0
:108DD0000860086800F001000090009802B0704739
:108DE00080B540F2100041F20001C2F20000C4F26E
:108DF000010100234FF00C0C4FF4E13280E80E002B
:108E0000C0E90333C0E905C3C361FFF707FF0028CA
:108E100018BFFFF74DFA80BDFEE70000FEE7000037
:108E200000F0070080F00703042B28BF04234FF055
:108E3000FF3C03380CFA03F338BF0020994381400C
:108E40000CFA00F022EA0000084370477047000067
:108E500070470000B0B501380024B4EB106F1CBFA0
:108E60000120B0BD4EF21005CEF2000568604FF053
:108E7000FF300F2100F04AF90720AC60286020463F
:108E8000B0BD000080B5FFF7FFFA80BD70B592B0AD
:108E900006AC20463021FFF7CBF9002543F6400011
:108EA0000595CDE90355CDE901550095C4F20200C1
:108EB0000168022641F080510160006800F0805096
:108EC0000090009847F200000095C4F2000001688D
:108ED00041F4804101600068A82100F480400090C6
:108EE0000098012006904FF4803007904FF48000E6
:108EF0000D9004200C960E90CDE90F16119020468F
:108F0000FFF7E6FC88B90F20CDE901064FF4A05029
:108F100004904FF48050059001A805210395FFF7B8
:108F200035FB002804BF12B070BDFFF7C1F9000087
:108F30004EF68850CEF20000016841F470010160E5
:108F400070470000016851E8031F026821F4907126
:108F500042E80313002BF5D1016851E8051F0268B0
:108F600021F0010142E80513002BF5D1016B012925
:108F70000AD100BF016851E8031F026821F0100107
:108F800042E80313002BF5D1202180F84210002184
:108F90000163704710B504460068D4E902C2236932
:108FA000016921F4405111430161626943EA0C01F6
:108FB000E3691143C268194349F20C639A431143B0
:108FC000C1604169A26921F4407141F2004311433B
:108FD00040F48062C4F201039A42416102D1FFF77A
:108FE0002FFC01E0FFF71AFCE16963681922B1F573
:108FF000004FA0FB02011CD15A00DB0FFFF7E0F885
:1090000048F21F51C5F2EB11A0FB01235A096FF082
:10901000630302FB0300322303EBC000A0FB01014A
:109020004FF4F87000EA111000EB0210C1F3421186
:109030001AE09A009B0FFFF7C3F848F21F51C5F2E0
:10904000EB11A0FB01235A096FF0630302FB03003D
:10905000322303EB0010A0FB0101F02000EA5110C5
:1090600000EB0210C1F3431122680843906010BD69
:109070002DE9F04182B0044600680068084088424B
:1090800003D1002002B0BDE8F0811D460E46904697
:109090005F1C04E0206800683040B04228D0002FF8
:1090A000F8D0FFF7EBF901464FF003000DB3A1EB49
:1090B0000801A9421DD82068C1684907EAD5402E99
:1090C000E8D0802EE6D001680907E3D50025019598
:1090D000016801914068019001982046FFF732FF36
:1090E0000820606484F84050012002B0BDE8F0819F
:1090F000002002B0BDE8F081FEE700004EF60C5003
:10910000CEF200000068C0F3022070474EF6145300
:1091100000F00F02CEF2000309011A4400F160438F
:10912000B0F1FF3FC8BF03F5644211707047000003
:109130004EF60C51CEF200010A684FF6FF031A40BA
:1091400060F30A2242F0806040F0FD7008607047D2
:1091500080B582B0019040F21000C2F2000001A977
:1091600001224FF6FF73FFF7C3FD019802B080BDE7
:109170004EF6085048F20001CEF20000C0F60001A1
:10918000016062B6FFF78EF9FFF7B0FAFFF77EFED7
:10919000FFF70AFEFFF724FE04A400BF204600F0FC
:1091A0001BF84FF47A70FFF787F8F7E768656C6C87
:1091B0006F20776F726C640002E008C8121F08C14C
:1091C000002AFAD170477047002001E001C1121F48
:1091D000002AFBD17047000010B5044601E0FFF7FC
:1091E000B7FF14F8010B04490028F8D1BDE810407E
:1091F0000A20FFF7ADBF00000000002000000000C3
:109200000000000001020304060708090000000036
:109210000102030438920008000000201000000042
:10922000B891000848920008100000205004000087
:10923000C891000800000000000000000024F400B5
:08924000010000001000000015
:0400000508008189E5
:00000001FF
